:020000040000FA
:1000000098820320E1020000F5020000F7020000E0
:10001000F9020000FB020000FD02000000000000E9
:10002000000000000000000000000000FF020000CF
:1000300001030000000000000303000005030000AE
:100040000703000007030000070300000703000088
:100050000703000007030000070300000703000078
:100060000703000007030000070300000703000068
:100070000703000007030000070300000703000058
:100080000703000007030000070300000703000048
:100090000703000007030000070300000703000038
:1000A0000703000007030000070300000703000028
:1000B0000703000007030000070300000703000018
:1000C0000703000007030000070300000703000008
:1000D0000703000007030000070300008111000070
:1000E0008D11000007030000070300000703000054
:1000F00007030000070300000703000007030000D8
:1001000007030000070300000703000007030000C7
:1001100007030000070300000703000007030000B7
:1001200007030000070300000703000007030000A7
:100130000703000007030000070300000703000097
:100140000703000007030000070300000703000087
:100150000703000007030000070300000703000077
:100160000703000007030000070300000703000067
:100170000703000007030000070300000703000057
:100180000703000007030000070300000703000047
:100190000703000007030000070300000703000037
:1001A0000703000007030000070300000703000027
:1001B0000703000007030000070300000703000017
:1001C0000703000007030000070300000703000007
:1001D00007030000070300000703000007030000F7
:1001E00007030000070300000703000007030000E7
:1001F00007030000070300000703000007030000D7
:1002000007030000070300000703000007030000C6
:1002100007030000070300000703000007030000B6
:1002200007030000070300000703000007030000A6
:100230000703000007030000070300000703000096
:1002400000F002F800F03CF80AA090E8000C8244AC
:100250008344AAF10107DA4501D100F031F8AFF289
:10026000090EBAE80F0013F0010F18BFFB1A43F094
:1002700001031847AC120000CC120000103A24BF52
:1002800078C878C1FAD8520724BF30C830C144BFFB
:1002900004680C607047000000230024002500263D
:1002A000103A28BF78C1FBD8520728BF30C148BFD9
:1002B0000B6070471FB501F022F91FBD10B510BDCE
:1002C00001F0E7F81146FFF7F5FF01F050F801F0F3
:1002D00005F903B4FFF7F2FF03BC01F009F90000D0
:1002E000DFF83000016841F4700101600A4880477E
:1002F0000A480047FEE7FEE7FEE7FEE7FEE7FEE707
:10030000FEE7FEE7FEE7FEE705480649044A064B1E
:100310007047000088ED00E051100000410200002D
:1003200098800320988203209880032010B500282D
:1003300007DA0A07140EFE4A00F00F031B1FD454FD
:1003400003E00A07130EFB4A135410BD02460021B6
:100350000BE0F94800EB01100068904204D1F64828
:1003600000EB0110001D7047491C0229F1D3002049
:10037000F9E770B504460D46267C06F00400042813
:1003800007D1207C20F004002074A86808B1A86878
:10039000804706F00200022807D1207C20F00200EE
:1003A0002074686808B16868804716F0010F07D0AC
:1003B000207C20F001002074286808B1286880475C
:1003C00070BD10B50446DD48844209D1272000F0F5
:1003D000CDFD272000F0B5FD0F212720FFF7A6FF58
:1003E000D6484030844209D1282000F0BFFD2820A3
:1003F00000F0A7FD0F212820FFF798FF10BD10B5D2
:100400000446CE48844209D1272000F0AFFD2720C2
:1004100000F0A3FD0F212720FFF788FFC7484030D9
:10042000844209D1282000F0A1FD282000F095FD8C
:100430000F212820FFF77AFF10BD70B504460D4646
:100440000CB1082D01DD042070BD2046FFF77EFFB2
:1004500006460EB90420F7E7B848844203D0B748EF
:10046000403084420ED1B648007800F0F000B34925
:1004700081F80101084690F8010140EA050081F881
:10048000010190E0AD488030844203D0AC4841384F
:1004900084420DD1AA48007800F00F00A74981F8E6
:1004A0000101A748007840EA051081F801017AE0CF
:1004B000A348FF30844202D0A24884420ED1A24811
:1004C000007800F0F0009D4981F80103084690F89B
:1004D000010340EA050081F8010364E099484030D7
:1004E000844203D09848413884420DD19648007820
:1004F00000F00F00914981F801039348007840EA29
:10050000051081F801034EE08F48FF30844202D08D
:100510008E4884420CD18D48C130007800F0F00044
:100520008A49C131087008460078284308703AE0CB
:1005300086484030844203D08448803084420DD1C4
:100540008248C130007800F00F008049C131087046
:100550000846007840EA0510087024E07C48844290
:1005600003D07B48403084420AD17A48007800F0BA
:10057000F00078490870084600782843087012E0B7
:1005800073488030844203D07248413884420AD193
:100590007048007800F00F006E4908700846007837
:1005A00040EA0510087000204EE770B504460D467D
:1005B0000CB1042D01DD042070BD2046FFF7C6FEFE
:1005C00006460EB90420F7E7A08920F07000A0814C
:1005D000A08940EA0510A0810020EDE72DE9F04157
:1005E00006460D46344616B90420BDE8F081287849
:1005F0000A280EDC687801280BDCA878012808DCC2
:10060000E878032805DC2879012802DC68790128CC
:1006100001DD0420E9E73046FFF798FE07460FB9F1
:100620000420E2E7287808280BDA00206074A0890B
:1006300020F4E040A081A089297840EA0130A0811F
:100640000CE001206074A08920F4E040A081A08922
:10065000297801F0070140EA0130A0816978A0897A
:1006600061F3CB20A081A978A08961F38A20A081C1
:100670002979A08961F3C300A081A08920F440708A
:10068000A081A089E97840EA0120A0816979A08948
:1006900061F38200A0810020A7E7014609B9042088
:1006A0007047888920F00200801C88810020F7E7CD
:1006B000014609B904207047888920F0020088812A
:1006C0000020F8E7014609B904207047888920F026
:1006D0000100401C88810020F7E72DE9F041044625
:1006E0000D4617464CB16878012806DC28780128A9
:1006F00003DCA878012800DC17B90420BDE8F081EC
:100700002046FFF723FE06460EB90420F6E72878B8
:10071000012806D13868B060207C20F040004030CD
:100720002074687801281BD178687060207C13E001
:1007300018ED00E000E400E00080032000500240DB
:1007400001510240405202400153024040540240D5
:10075000005602400157024020F020002030207453
:10076000A878012806D1B8683060207C20F01000FD
:10077000103020742046FFF724FE0020BEE770B53D
:1007800004460D4644B16878012805DC2878012824
:1007900002DCA878012801DD042070BD2046FFF7A7
:1007A000D5FD06460EB90420F7E72878012805D1C3
:1007B0000020B060207C20F0400020746878012880
:1007C00005D100207060207C20F020002074A878E3
:1007D000012805D100203060207C20F0100020741A
:1007E000207CC0F3801050B9207CC0F3401030B999
:1007F000207CC0F3001010B92046FFF700FE002057
:10080000CBE7024621B1012906D002290CD107E02D
:10081000137CC3F3800008E0137CC3F3400004E0C2
:10082000137C03F0010000E000BF00BF70470246E8
:100830000AB1022901DD0420704721B1012907D046
:1008400002290FD109E0107C20F0040010740AE0A6
:10085000107C20F00200107405E0107C20F00100F4
:10086000107400E000BF00BF0020E5E702460AB9AF
:100870000420704711800020FBE702460AB90420DB
:10088000704791800020FBE70146088970472DE9F9
:10089000F04106460D46344616B90420BDE8F08105
:1008A00028780A280EDC687801280BDCA878012853
:1008B00008DCE878032805DC2879012802DC68795F
:1008C000012801DD0420E9E73046FFF73FFD074638
:1008D0000FB90420E2E7287808280BDA00206074BA
:1008E000A08920F4E040A081A089297840EA013065
:1008F000A0810CE001206074A08920F4E040A08178
:10090000A089297801F0070140EA0130A0816978C7
:10091000A08961F3CB20A081A978A08961F38A2006
:10092000A0812979A08961F3C300A081A08920F466
:100930004070A081A089E9780843A0816979A089E5
:1009400061F38200A0810020A8E7014609B90420D4
:100950007047888920F00200801C88810020F7E71A
:10096000014609B904207047888920F00200888177
:100970000020F8E7014609B904207047888920F073
:100980000100401C88810020F7E72DE9F041044672
:100990000D46174634B12878012803DC6878012811
:1009A00000DC17B90420BDE8F0812046FFF7CEFC3B
:1009B00006460EB90420F6E72878012806D13868E3
:1009C000B060207C20F0400040302074687801281E
:1009D00006D178683060207C20F010001030207440
:1009E0002046FFF7EEFC0020DDE770B504460D461B
:1009F0002CB12878012802DC6878012801DD042068
:100A000070BD2046FFF7A2FC06460EB90420F7E7AA
:100A10002878012805D10020B060207C20F040001B
:100A200020746878012805D100203060207C20F0F7
:100A300010002074207CC0F3801030B9207CC0F3FB
:100A4000001010B92046FFF7DAFC0020D8E7024674
:100A500011B1012908D103E0137CC3F3800004E045
:100A6000137C03F0010000E000BF00BF70470246A6
:100A70000AB1012901DD0420704711B101290AD111
:100A800004E0107C20F00400107405E0107C20F0DD
:100A90000100107400E000BF00BF0020ECE7024638
:100AA0000AB90420704711800020FBE702460AB90A
:100AB0000420704791800020FBE7014608897047B9
:100AC0002DE9F04106460D46344616B90420BDE82E
:100AD000F08128780A280BDC6878012808DCA878DF
:100AE000052805DCE878012802DC2879012801DDE9
:100AF0000420ECE73046FFF729FC07460FB9042035
:100B0000E5E7287808280BDA00206074A08920F433
:100B1000E040A081A089297840EA0130A0810CE062
:100B200001206074A08920F4E040A081A089297888
:100B300001F0070140EA0130A0816978A08961F3E2
:100B4000C710A081E978A08961F3C300A081A878CB
:100B500003280DDC607C20F080006074A08920F404
:100B60004070A081A089A97840EA0120A0811CE002
:100B7000A878042809D1607C20F08000803060745F
:100B8000A08920F44070A0810FE0A87805280CD13E
:100B9000607C20F0800080306074A08920F4407078
:100BA000A081A08940F48070A0812979A08961F397
:100BB0008200A08100208AE7014609B9042070471D
:100BC000888920F00200801C88810020F7E7014618
:100BD00009B904207047888920F00200888100202C
:100BE000F8E7014609B904207047888920F0010020
:100BF000401C88810020F7E72DE9F04104460D46AE
:100C0000174634B12878012803DC6878012800DC15
:100C100017B90420BDE8F0812046FFF797FB064690
:100C20000EB90420F6E72878012806D13868B060AC
:100C3000207C20F04000403020746878012806D1E4
:100C400078683060207C20F010001030207420463E
:100C5000FFF7B7FB0020DDE770B504460D462CB169
:100C60002878012802DC6878012801DD042070BDA5
:100C70002046FFF76BFB06460EB90420F7E72878FD
:100C8000012805D10020B060207C20F040002074B5
:100C90006878012805D100203060207C20F0100009
:100CA00020742046FFF7ABFB0020E0E7024611B1BD
:100CB000012908D103E0137CC3F3800004E0137C16
:100CC00003F0010000E000BF00BF704702460AB118
:100CD000012901DD0420704711B101290AD104E086
:100CE000107C20F00400107405E0107C20F001005E
:100CF000107400E000BF00BF0020ECE702460AB914
:100D00000420704711800020FBE7014608897047E6
:100D10002DE9F04106460D46344616B90420BDE8DB
:100D2000F08128780A2808DC6878012805DCA87892
:100D3000042802DCE878012801DD0420EFE73046D2
:100D4000FFF704FB07460FB90420E8E728780828D6
:100D50000BDA00206074A08920F4E040A081A08913
:100D6000297840EA0130A0810CE001206074A0895C
:100D700020F4E040A081A089297801F0070140EA31
:100D80000130A0816978A08961F3C710A081A08992
:100D900020F4E060A081A089A97840EA0120A08128
:100DA000E978A08961F38200A0810020B7E70146BD
:100DB00009B904207047888920F00200801C8881CE
:100DC0000020F7E7014609B904207047888920F020
:100DD000020088810020F8E72DE9F04104460D4625
:100DE000174634B12878012803DC6878012800DC34
:100DF00017B90420BDE8F0812046FFF7A7FA0646A0
:100E00000EB90420F6E72878012806D13868B060CA
:100E1000207C20F04000403020746878012806D102
:100E200078683060207C20F010001030207420465C
:100E3000FFF7C7FA0020DDE770B504460D462CB178
:100E40002878012802DC6878012801DD042070BDC3
:100E50002046FFF77BFA06460EB90420F7E728780C
:100E6000012805D10020B060207C20F040002074D3
:100E70006878012805D100203060207C20F0100027
:100E80002074207CC0F3801030B9207CC0F30010A7
:100E900010B92046FFF7B3FA0020D8E7024611B197
:100EA000012908D103E0137CC3F3800004E0137C24
:100EB00003F0010000E000BF00BF704702460AB126
:100EC000012901DD0420704711B1012906D100E09C
:100ED00005E0107C20F00100107400E000BF00BFAE
:100EE0000020F0E701460A7CD00970470146888857
:100EF000704701462248814218D021488030814203
:100F000014D02048814211D01E48803081420DD03B
:100F10001D4881420AD01C488030814206D01B48BF
:100F2000814203D019488030814201D100207047AE
:100F30008B884420425A43EA0240F8E7144908806B
:100F4000704700F01F020121914042094FF0E02359
:100F500003EB8202C2F80011704700F01F0201216A
:100F600091400C4A430942F82310704700F01F02D9
:100F700001219140084A430942F8231070470000BC
:100F8000405002404052024040540240405602400D
:100F9000FC5F024080E100E080E200E0694A1278F4
:100FA0005209062A20D2DFE802F00305071F1A1CA7
:100FB00065481BE0644819E0644A127802F01F0299
:100FC00002F10102604B02FB03F15E4A92F8382005
:100FD0004FF0010303EB1212B1FBF2F006E05C48A4
:100FE00004E04FF4004001E0002000BF00BF554A7C
:100FF000127C02F00702072A24D2DFE802F004077D
:101000000B11151B1F00534A10601FE04208514B83
:101010001A601BE00322B0FBF2F24E4B1A6015E09F
:1010200082084C4B1A6011E00622B0FBF2F2494BE9
:101030001A600BE0C208474B1A6007E00209454BF3
:101040001A6003E00022434B1A6000BF00BF7047E4
:10105000414842490860C043086000204049087286
:101060004048006840F470003E4908600120810754
:10107000486100BF4FF08040406900F00200022844
:10108000F8D100202F4908740120087581200876C6
:1010900008778320344908704FF00000294981F80F
:1010A0002800324908704FF05C00264981F8300072
:1010B0000846007840F00200087000BF214800791F
:1010C00010F0020FFAD00020294908704FF00100FB
:1010D0001C4981F838004FF0270081F83C00084691
:1010E000007840F01000087000BF1648007910F03A
:1010F000100FFAD01348007840F0400011490870F2
:1011000000BF1048007800F0E0001A4908700D4850
:10111000007900F0E00009788842F2D116480068B2
:10112000C0F30900A0F54071FF3909D00A48C01C7E
:101130001249C8601048006888804FF00000C860FD
:10114000704700000000014000093D003C000140E4
:10115000A08601002080032051E5CC1A001C01402C
:101160000010014088ED00E02000014000C0034075
:1011700034000140248003200001004000E00240D0
:1011800010B506490648FFF7F4F810BD10B503493D
:10119000103103484030FFF7ECF810BD0480032005
:1011A000005002407CB504460D4620788DF80000C2
:1011B00060788DF80100A0788DF80200E0788DF855
:1011C000030020798DF8040060798DF805006946E8
:1011D0002846FFF703FA06460EB900207CBD022020
:1011E000FCE72DE9FF4104460D46164620788DF8B0
:1011F0000C0060788DF80D00A0788DF80E0028683E
:10120000009068680190A86802906A4603A9304679
:10121000FFF763FA07461FB9002004B0BDE8F0816C
:101220000220FAE72DE9F04104460F4615461E4616
:101230000CB1012C0AD139463046FFF7FEF8294699
:101240003046FFF7B2F90020BDE8F081012C01DD46
:101250000220F9E700BFF7E7014671B900BF3B483C
:10126000006820F00C00001D384A10600120384A48
:10127000106000BF4FF00000704701290FD100BF80
:101280003248006820F4406040F480602F4A1060CB
:101290000120304A106000BF4FF00000ECE7022050
:1012A000EAE72DE9F04705460E46174644F6206A60
:1012B0009AFBF5F084B2601E84B221463846FFF7EF
:1012C000D5FA8146B9F1000F02D00220BDE8F087BF
:1012D00004FB06F0642190FBF1F01FFA80F8414610
:1012E0003846FFF7CAFA8146B9F1000F01D1002054
:1012F000ECE70220EAE770B505462846FFF7CDF98E
:1013000004460CB1022070BD2846FFF7DBF9044605
:101310000CB90020F7E70220F5E770B50446204637
:10132000FFF7D0F905460DB9002070BD0220FCE79B
:10133000F8B504460E4669462046FFF720FA0546F2
:101340000DB90020F8BD0220FCE7000010F60640B1
:101350000002DE420402DE4242F21071002003E08D
:10136000401C884200DD00E0FAE700BF704786B00D
:101370000024404903C9CDE904013E480830006813
:1013800003903C4A0C3207CA8DE807000020FFF7A3
:1013900063FF394B012200210846FFF743FF36491E
:1013A00004A8FFF7FFFE344A0A210520FFF779FF62
:1013B000314A694603A8FFF714FF2F48FFF79BFF48
:1013C000FFF7CAFF03A92C48FFF7B2FFFFF7C4FFDE
:1013D0002948FFF7A2FF0020284908602849086033
:1013E0002849086000BF00212348FFF70AFA0128B6
:1013F00009D100212048FFF71AFA20480068401C54
:101400001E4908601EE001211B48FFF7FAF9012878
:1014100009D101211848FFF70AFA19480068401C51
:10142000174908600EE002211348FFF7EAF9012886
:1014300008D102211048FFF7FAF912480068401C51
:1014400010490860641C10488442CCD300BFFEE7FA
:101450000B480068401C0A4908607047094800684A
:10146000401C08490860704704480068401C034954
:1014700008607047081500000050024028800320D3
:101480002C80032030800320A02526007047704761
:101490007047754600F028F8AE4605006946534689
:1014A00020F00700854618B020B5FEF72DFFBDE8F7
:1014B00020404FF000064FF000074FF000084FF0BB
:1014C000000B21F00701AC46ACE8C009ACE8C0094C
:1014D000ACE8C009ACE8C0098D4670470446AFF3DC
:1014E00000802046FEF7F5FE004870473480032058
:1014F00001491820ABBEFEE72600020070474FF0FE
:101500004070E1EE100A7047010100000000000089
:101510000101010069140000511400005D14000075
:101520004015000000800320340000007C02000011
:10153000741500003480032064020000980200004B
:101540000050024000000000000000000000000009
:1015500040500240000000000000000000000000B9
:101560000068890900000000000000000000000081
:041570000000000077
:04000005000002E114
:00000001FF
